:08000000803102288731FD2F39
:100F4A00803021009E0001309D00080021008F01A1
:100F5A008D01FF308C00FF3023008C000800210037
:100F6A009D149D18B92FBA2FB62F1C08F1001B0823
:100F7A00F00008008731AB2787318731A5278731F1
:100F8A008731CB278731C52F803102288731B42793
:100F9A0087317108F5007008F4007508F3007408C9
:100FAA00F2000730F336F20C890BD72F72083F395B
:100FBA00F60022008F018D01043076020318E62F15
:100FCA00E72FF12F0130F200760AEC2FF235890B68
:100FDA00EB2F72088F00FC2F0130F2007608FC3EDE
:100FEA00890AF82FF235890BF72F72088D0008004D
:060FFA0020008731BF2F2B
:00000001FF
