:08000000803102288731FD2F39
:100F1E00073020009C00FF309B009A0191100800C2
:100F2E00F101F20120009110911C9E2F9F2F9B2FFB
:100F3E000130F1070030F23D7208803AF000803047
:100F4E007002031DAC2F0A307102031CAF2FB02F9D
:100F5E00992F080021008F018D0123008D012200A1
:100F6E008F018D010130F80087318F278731F40111
:100F7E00F501780822008F008D0187319727873180
:100F8E000310F80D0130F4070030F53D7508803A76
:100F9E00F30080307302031DD62F04307402031C3D
:100FAE00D92FDA2FC02F0130F800F601F7012200F9
:100FBE008F0178088D008731972787310310F80D40
:100FCE000130F6070030F73D7708803AF3008030A5
:100FDE007302031DF42F04307602031CF72FF82F33
:100FEE00DE2F0130F800BE2F80310228200087311D
:020FFE00B12F11
:020000040001F9
:04000E00EA3FFB1EAC
:00000001FF
