:08000000803102288731FD2F39
:100EFA00783020009C04FC309C057C309B009A01D1
:100F0A00911091101C15080021008F018D012200FB
:100F1A008F018D0187317D2787310130F900F10179
:100F2A00F201790822008F008D01F301F4012000FB
:100F3A009110911CA12FA22F9E2F0130F307003090
:100F4A00F43D7408803AF00080307002031DAF2F20
:100F5A007D307302031CB22FB32F9C2F0310F90D9F
:100F6A000130F1070030F23D7208803AF00080301B
:100F7A007002031DC22F04307102031CC52FC62F35
:100F8A00962F0130F900F501F60122008F01790848
:100F9A008D00F701F80120009110911CD52FD62F52
:100FAA00D22F0130F7070030F83D7808803AF00078
:100FBA0080307002031DE32F7D307702031CE62F79
:100FCA00E72FD02F0310F90D0130F5070030F63D59
:100FDA007608803AF00080307002031DF62F043044
:100FEA007502031CF92FFA2FCA2F922F803102287B
:060FFA0020008731892F61
:020000040001F9
:04000E00EA3FFB1EAC
:00000001FF
