:08000000803102288731FD2F39
:100E3200803021009E0001309D00080021008F01BA
:100E420022008F01FF3021008C00FF3023008C0034
:100E5200080021009D149D182F2F302F2C2F1C08C5
:100E6200F1001B08F000080020001C08FC390238C1
:100E72009C0087309C05C7309B002C009C170F30CC
:100E82003D00A80020001C15080087311F2787316C
:100E920087313527873187311927873187312A27CB
:100EA200873171082000A9007008A8002908A10054
:100EB2002808A0008731BA2787314F2F80310228B6
:100EC200F401F501701C662F672F6B2F7208F4076F
:100ED2007308F53D0130F235F30D890B6C2F0130AB
:100EE200F136F00C890B712F70087104031D7A2FF3
:100EF2007B2F632F7508F1007408F0000800FA01D7
:100F0200FB01760877040319872F882FB52F01304C
:100F1200FC00922F0130F635F70D890B8C2F013032
:100F2200FC07F71F952F962F8B2F0130FA35FB0DFB
:100F3200890B972F77087902031DA12F7608780273
:100F4200031CA42FA52FAA2F7608F8027708F93BD5
:100F52007A140130F736F60C890BAB2F0130FC0204
:100F6200031DB42FB52F962F7B08F7007A08F600E1
:100F720008006630F6000030F70020002108F90072
:100F82002008F80087318027873177082000A500E4
:100F92007608A4000A30F6000030F7002508F100B8
:100FA2002408F000C730F2000030F30087316127D7
:100FB20087317108F9007008F8008731802787317E
:100FC20077082000A7007608A6002708A3002608B5
:100FD200A200A336A20CA336A20C22082C009B006E
:100FE20020002608A2000630A235890BF52F220820
:0E0FF200C0392C009A00080020008731462FDD
:00000001FF
