:0400000080311B2808
:100008007E1480312000911C0A280B281928911091
:100018000310F50C7508031D12281328152808303D
:10002800F5000130F3000030F4007E100900803143
:100038001D28803168208031F500F301F4017E101D
:1000480020008031272821008F018D0122008F0197
:100058008D018030F20080315C2080317308740497
:100068000319372838283D28750822008F00F30126
:10007800F401720822008D00F001F1010000013046
:10008800F0070030F13D4E30710220300319700244
:10009800031C4F28502842280310F20C7208031D35
:1000A8005628572832288030F200322880311B2801
:1000B800073020009C00FF309B009A01911021001E
:0A00C80091140B178B170800083481
:020000040001F9
:04000E00EA3FFB1EAC
:00000001FF
