:0400000080311B2808
:100008007E1480312000911C0A280B281928911091
:100018000310F70C7708031D122813281528083039
:10002800F7000130F5000030F6007E10090080313D
:100038001D2880317B208031F700F501F6017E1004
:1000480020008031272821008F018D0123008D0198
:1000580022008F018D018030F40080316F208031C3
:1000680075087604031939283A283F2877082200AA
:100078008F00F501F601740822008D0080315120AF
:1000880080310310F40C7408031D4B284C283428C5
:100098008030F400342880311B280030F300003011
:1000A800F2000030F1000030F00000000130F007ED
:1000B8000030F13DF23DF33D7308031D6E287208D0
:1000C800031D6E2850307002C330713B031C6D282D
:1000D8006E2859280800073020009C00FF309B003C
:1000E8009A019110210091140B178B1708000834FE
:020000040001F9
:04000E00EA3FFB1EAC
:00000001FF
