:0400000080313328F0
:100008007E1480312000911C0A280B283128911079
:100018007008031D102811282228710822008F005B
:100028008D010310F10D10307106031D1C281D28C9
:1000380031280130F1000130F00031287108220028
:100048008D008F010310F10D10307106031D2D284E
:100058002E2831280130F100F0017E10090080318E
:100068003528803159208031F100F0017E102000C0
:1000780080314D28073020009C00FF309B009A01FA
:100088009110210091140B178B17783020009C04D5
:10009800080021008F018D0122008F018D01803120
:0C00A8003E20803156288031332801347E
:020000040001F9
:04000E00EA3FFB1EAC
:00000001FF
