:08000000803102288731FD2F39
:100E4A008731352787318731402787310800873135
:100E5A00252787318731662787312F2F803102284E
:100E6A0021008F018D0122008F018D0121000D14B7
:100E7A0023008D01080020001C08FC3902389C0060
:100E8A0087309C05C7309B002C009C170F303D0013
:100E9A00A80020001C1508007B08FD007A08FC0049
:100EAA00FD36FC0CFD36FC0C7C082C009B007A08F5
:100EBA00FC000630FC35890B5F2F7C08C0399A008C
:100ECA00080020000D1C6A2F6B2F742F4230A300DC
:100EDA00A030A2000030A1000030A0007C2F4430D6
:100EEA00A3004830A2000030A1000030A00023086F
:100EFA00F3002208F2002108F1002008F0008731EF
:100F0A008F2787317108FB007008FA008731512753
:100F1A00873108000310720D730DF9007908031D5B
:100F2A00972F982FA12F0030F3000030F2000030E5
:100F3A00F1000030F000FC2F7008F4007108F50091
:100F4A007208F6007308F7001F30F736F60CF50C36
:100F5A00F40C890BAA2F7408F800F217FF30F00579
:100F6A00FF30F105FF30F2050030F3059630F90243
:100F7A00F91FC02FC12FD72F7908803A973E03183F
:100F8A00C72FC82FC92F982F0130F336F20CF10C56
:100F9A00F00C890BCA2F0130F907031DD52FD62F64
:100FAA00C92FEC2F20307902031CDC2FDD2FE72F0D
:100FBA00982F0130F035F10DF20DF30D890BDF2F6B
:100FCA000130F9027908031DEB2FEC2FDE2F780888
:100FDA000319F02FF12FFC2FF009F109F209F30997
:100FEA00F00A0319F10A0319F20A0319F30A0800AD
:060FFA00200087312C2FBE
:00000001FF
