:040000008031B6286D
:100008007E1480312000911C0A280B28B4289110F6
:100018000130D5070030D63D5608803AD0008030F0
:100028005002031D19280A305502031C1C281D28DC
:10003800B4282000D501D6015708F0005808F1006F
:10004800890D893B8909F200F300013085311125BA
:10005800803173082000A7007208A6007108A50067
:100068007008A4003C30A3002330A200D730A100C0
:100078000A30A0008031CA20803120002308BD004A
:100088002208BC002108BB002008BA005408C1009F
:100098005308C0005208BF005108BE008331052331
:1000A800803120003D08D4003C08D3003B08D20032
:1000B8003A08D1005408F3005308F2005208F1003E
:1000C8005108F0003F30F7008030F6000030F500AE
:1000D8000030F4008531B5258031031C742875285B
:1000E80083283F302000D4008030D3000030D20075
:1000F8000030D100FF30D700FF30D800A8280030EA
:10010800F3000030F2000030F1000030F000200071
:100118005408F7005308F6005208F5005108F40097
:100128008531B5258031031C9A289B28A8280030E2
:100138002000D4000030D3000030D2000030D100BD
:100148000130D7000030D80020005408C7005308F9
:10015800C6005208C5005108C4008631AE26803159
:100168007E1009008031B828873165278031D70093
:10017800873166278031D800D101D201D301D4015B
:10018800D501D6017E10200087315A2F2000230880
:100198008039AD002335B300A21FD328D428D52831
:1001A800331433080319D928DA28E928330A031D38
:1001B800DE28DF28E7280030A3000030A200003046
:1001C800A1000030A000A217F1280030A3000030E1
:1001D800A2000030A1000030A00027088039AD0639
:1001E8002735B200A61FF928FA28FB28321432084E
:1001F8000319FF2800290F29320A031D042905299C
:100208000D290030A7000030A6000030A5000030FE
:10021800A400A61717290030A7000030A600003058
:10022800A5000030A400320803191B291C29212924
:100238003308031D202921292A290030A300003072
:10024800A2000030A1000030A000042B2008F0001C
:10025800260887311727803171082000B9007008F7
:10026800B8003808A800A901AA01AB012B08B10001
:100278002A08B0002908AF002808AE003908A800ED
:10028800A901AA01AB012B08B7002A08B600290862
:10029800B5002808B4002108F00025088731172781
:1002A800803171082000B9007008B8003808A8002B
:1002B800A901AA01AB012808AE072908AF3D2A0801
:1002C800B03D2B08B13D3908A800A901AA01AB012E
:1002D8002808B4072908B53D2A08B63D2B08B73DBC
:1002E8002208F00024088731172780317108200080
:1002F800B9007008B8003808A800A901AA01AB0124
:100308002808AE072908AF3D2A08B03D2B08B13DA3
:100318003908A800A901AA01AB012808B4072908CF
:10032800B53D2A08B63D2B08B73D0830AE35AF0DB0
:10033800B00DB10D890B9A292108F00024088731E6
:100348001727803171082000B9007008B8003808F4
:10035800AE073908AF3D0030B03DB13D2008F00090
:10036800250887311727803171082000B9007008E7
:10037800B8003808AE073908AF3D0030B03DB13D90
:100388000830AE35AF0DB00DB10D890BC529200869
:10039800F000240887311727803171082000B90040
:1003A8007008B8003808AE073908AF3D0030B03DD6
:1003B800B13D2108F00026088731172780317108E0
:1003C8002000B9007008B8003808B4073908B53DEE
:1003D8000030B63DB73D2208F000250887311727C1
:1003E800803171082000B9007008B8003808B407D7
:1003F8003908B53D0030B63DB73D2208F000260863
:1004080087311727803171082000B9007008B800BB
:100418003808A8003908A900AA01AB010830A83596
:10042800A90DAA0DAB0D890B132A2808B4072908B2
:10043800B53D2A08B63D2B08B73D2E08A8002F0861
:10044800A9003008AA003108AB001830AB36AA0C56
:10045800A90CA80C890B2A2A2808B4072908B53D35
:100468002A08B63D2B08B73D0830AE35AF0DB00DA4
:10047800B10D890B392A33083207A800A901A90D43
:100488002808823EB800FF30293DB900622A0130B1
:10049800B435B50DB60DB70D890B4C2AB11F552AC9
:1004A800562A572A34140130AE35AF0DB00DB10DB0
:1004B800890B582AFF30B807FF30B93DB61F652AA7
:1004C800662A4B2AB201B11F6A2A6B2A872AFF3093
:1004D8002E05A800FF302F05A900FF303005AA001F
:1004E8007F303105AB002B082A042904280403199E
:1004F8007E2A7F2A822A0130B200872A341C852A64
:10050800862A872A7F2A320803198B2A8C2AB22A3C
:100518000130B4070030B53DB63DB73D371C952ACC
:10052800962AB22A3408A8003508A9003608AA0075
:100538003708AB000130AC00AB37AA0CA90CA80CEB
:10054800AC0BA02A2B08B7002A08B6002908B5006A
:100558002808B4000130B8070030B93D3908803A9E
:10056800A80080302802031DBB2AFF303802031C74
:10057800BE2ABF2AC92A7F302000B7008030B600C3
:100588000030B5000030B400FA2A20003908803A5B
:10059800A80080302802031DD32A0130380203182E
:1005A800D62AD72AE22A00302000B7000030B60049
:1005B8000030B5000030B400AD01FA2A2000380838
:1005C800B300FF30B405FF30B5057F30B605003005
:1005D800B705331CF02AF12AF22AB6173308A80007
:1005E8000130A836890BF52A2808B7002D08B7046A
:1005F8003708A3003608A2003508A1003408A00077
:10060800080020003D088039CA003D35CC00BC1FD9
:100618000E2B0F2B102B4C144C080319142B152BD5
:10062800252B4C0A031D192B1A2B222B0030BD0039
:100638000030BC000030BB000030BA00BC17BD0160
:100648002D2B0030BD000030BC000030BB00003056
:10065800BA0041088039CB004B084A060319352BEC
:10066800362B372B4A174135CB00C01F3C2B3D2B6F
:100678003E2B4B144B080319422B432B532B4B0A8D
:10068800031D472B482B502B0030C1000030C00001
:100698000030BF000030BE00C017C1015B2B003026
:1006A800C1000030C0000030BF000030BE004C0860
:1006B8004B020318602B612B852B4A1F642B652B7B
:1006C800672B8030CA064C08CD004B08CC004D087B
:1006D800CB003A08CD003E08BA004D08BE003B08E2
:1006E800CD003F08BB004D08BF003C08CD004008C6
:1006F800BC004D08C0003D08CD004108BD004D08B4
:10070800C100CD014B08C200C3014308C5004C0815
:100718004202C400031CC5034508803AC600803065
:100728004602031D992B1A304402031C9C2B9D2B57
:10073800D32B20003D083C043B043A04031DA52BA1
:10074800A72B0130A82B0030CD000030BD000030B1
:10075800BC000030BB000030BA004B08CC00DA2BDC
:100768004D1CB72BB82BC22B4D08C2000130C23626
:10077800890BBB2B42080138CD00C42B0310CD0CCC
:100788003A1CC72BC82BC92BCD170130C200BD3767
:10079800BC0CBB0CBA0CC20BCB2B0130CC07200015
:1007A8004B084C02031CD92BDA2BB42B4A1BDD2B2C
:1007B800DE2B182C4C08031DE22BE32BEC2B00300E
:1007C800BD000030BC000030BB000030BA00102D66
:1007D8003E08BA073F08BB3D4008BC3D4108BD3D47
:1007E8003D1CF72BF82BA22C4D1CFB2BFC2B062CAD
:1007F8004D08C2000130C236890BFF2B4208013870
:10080800CD00082C0310CD0C3A1C0B2C0C2C0D2CF5
:10081800CD170130C200BD37BC0CBB0CBA0CC20BE3
:100828000F2C0130CC07A22C3D08803AC2004108A9
:10083800803A4202031D2A2C40083C02031D2A2C40
:100848003F083B02031D2A2C3E083A0203182D2CB0
:100858002E2C632CFF30C200FF30C300FF30C400D1
:10086800FF30C5003A083E02C6003B083F3BC700C0
:100878003C08403BC8003D08413BC9004608C20748
:100888004708C33D4808C43D4908C53D4508BD0063
:100898004408BC004308BB004208BA008030CA06BE
:1008A8004D03FF3ACD004D08031D5B2C5C2C6B2CCF
:1008B8000130BA070030BB3DBC3DBD3D6B2C3E0846
:1008C800BA023F08BB3B4008BC3B4108BD3B3D0862
:1008D8003C043B043A04031D722C732C9E2C4D08D7
:1008E800031D772C782C9E2C0030BD000030BC00F6
:1008F8000030BB000030BA00102D0130BA35BB0DF6
:10090800BC0DBD0D890B822CCD1F8B2C8C2C8D2CF6
:100918003A144D1C902C912C952C03144D0DCD00A0
:10092800972C0310CD0D4C0803199B2C9C2C9E2C46
:100938000130CC02BC1FA12CA22C812CCB01CD1FD5
:10094800A62CA72CB52C4D087F390319AC2CAD2C3F
:10095800B02C0130CB00B52C3A1CB32CB42CB52CE0
:10096800AD2C4B080319B92CBA2CE32C0130BA076B
:100978000030BB3DBC3DBD3D3D1CC32CC42CE32C0D
:100988003A08C2003B08C3003C08C4003D08C50043
:100998000130C600C537C40CC30CC20CC60BCE2C24
:1009A8004508BD004408BC004308BB004208BA0023
:1009B8004C0A0319E02CE12CE32C0130CC074C0A3B
:1009C8000319E72CE82CED2C4C08031DEC2CED2C1E
:1009D800FB2C0030BD000030BC000030BB000030F4
:1009E800BA004C08031DF92CFA2CFB2CCA014C1C2C
:1009F800FE2CFF2C012DBC17032D7F30BC054C08A5
:100A0800C2000130C236890B062D4208BD00CA1F3C
:100A18000E2D0F2D102DBD170800F80078080319AA
:100A2800162D172D2B2DF31F1A2D1B2D2B2D70096D
:100A3800FA007109FB007209FC007309FD00FA0A4B
:100A48000319FB0A0319FC0A0319FD0A332D73085D
:100A5800FD007208FC007108FB007008FA007308BA
:100A6800720471047004031D3A2D3B2D442D00308F
:100A7800F3000030F2000030F1000030F000B42D37
:100A88009630F900502D0130F9070130FD36FC0C85
:100A9800FB0CFA0C890B4A2DFE307D05031D552DE4
:100AA800562D472D662D0130F9070130FA07003021
:100AB800FB3DFC3DFD3D0130FD36FC0CFB0CFA0C0A
:100AC800890B602DFF307D05031D6B2D6C2D572D77
:100AD800762D0130F9020130FA35FB0DFC0DFD0DC4
:100AE800890B702DFC1B792D7A2D802D023079020F
:100AF80003187F2D802D6D2D7918832D842D8C2D35
:100B0800FF30FA05FF30FB057F30FC05FF30FD059F
:100B18000310F90C7908F400F501F601F701183013
:100B2800F435F50DF60DF70D890B942D7408FA04BC
:100B38007508FB047608FC047708FD047808031997
:100B4800A62DA72DAC2DF31FAA2DAB2DAC2DFD176F
:100B58007D08F3007C08F2007B08F1007A08F000B9
:100B6800080000307005F80000307105F900803089
:100B78007205FA007F307305FB007B087A0479045C
:100B88007804031DC82DC92DD12D0030F300003085
:100B9800F2000030F1000030F00000307405F80079
:100BA80000307505F90080307605FA007F3077054A
:100BB800FB007B087A0479047804031DE42DE52DF5
:100BC800ED2D0030F7000030F6000030F500003061
:100BD800F400F31FF02DF12D092E0030F80000303D
:100BE800F9000030FA008030FB007008F802710844
:100BF800F93B7208FA3B7308FB3B7B08F3007A0861
:100C0800F2007908F1007808F000F71F0C2E0D2E7D
:100C1800252E0030F8000030F9000030FA0080304E
:100C2800FB007408F8027508F93B7608FA3B770868
:100C3800FB3B7B08F7007A08F6007908F50078088E
:100C4800F4008030F3068030F70677087302031D3E
:100C5800372E76087202031D372E75087102031DA0
:100C6800372E7408700203183A2E3B2E3D2E0310BF
:100C78003E2E03140800031020003C0D3D0DC30058
:100C88004308031D482E492E522E0030BD00003067
:100C9800BC000030BB000030BA00AD2E3A08BE00E0
:100CA8003B08BF003C08C0003D08C1001F30C136EA
:100CB800C00CBF0CBE0C890B5B2E3E08C200BC17D3
:100CC800FF30BA05FF30BB05FF30BC050030BD055D
:100CD8009630C302C31F712E722E882E4308803AA5
:100CE800973E0318782E792E7A2E492E0130BD367C
:100CF800BC0CBB0CBA0C890B7B2E0130C307031D3F
:100D0800862E872E7A2E9D2E20304302031C8D2E90
:100D18008E2E982E492E0130BA35BB0DBC0DBD0D57
:100D2800890B902E0130C3024308031D9C2E9D2E73
:100D38008F2E42080319A12EA22EAD2EBA09BB0987
:100D4800BC09BD09BA0A0319BB0A0319BC0A03196D
:100D5800BD0A080020004708A7004608A600450865
:100D6800A5004408A4004030A3008030A200003051
:100D7800A1000030A0008031CA208631200023085D
:100D8800CD002208CC002108CB002008CA004D085D
:100D9800A7004C08A6004B08A5004A08A4001B0899
:100DA800013EF000003003180130F100F201F11BA0
:100DB800F2037208F300013085311125863173087A
:100DC8002000A3007208A2007108A1007008A0000A
:100DD8008031CA20863120002308BD002208BC00CB
:100DE8002108BB002008BA0086313F268631200042
:100DF8003B08CF003A08CE004F08C9004E08C8008B
:100E0800C936C80CC936C80C48082C009B002000FD
:100E18004E08C8000630C835890B0F2F4808C0395E
:100E28002C009A000800F800F401F5017008F2009F
:100E3800F3017208F6007308F700781C242F252F99
:100E4800292F7608F4077708F53D0130F635F70DB8
:100E5800890B2A2F0310F80C7808031D342F352F1F
:100E6800212F7508F1007408F00008007C3020007C
:100E78009B001C15FC309C0578309C042C009C17AA
:100E88001C160F303D00A800080087315327873112
:100E980087313A2787318731602787310800210059
:100EA8008F018D0122008F018D01080087314927AC
:100EB80087315D2F8031B628210091140B178B17CD
:060EC800080001340034B3
:020000040001F9
:04000E00EA3FFB1EAC
:00000001FF
